{"abi":[{"type":"function","name":"allPairs","inputs":[{"name":"","type":"uint256","internalType":"uint256"}],"outputs":[{"name":"","type":"address","internalType":"address"}],"stateMutability":"view"},{"type":"function","name":"calculateAddr","inputs":[{"name":"_tokenA","type":"address","internalType":"address"},{"name":"_tokenB","type":"address","internalType":"address"},{"name":"arg","type":"uint256","internalType":"uint256"}],"outputs":[{"name":"predictAddr","type":"address","internalType":"address"}],"stateMutability":"view"},{"type":"function","name":"createPair2","inputs":[{"name":"_tokenA","type":"address","internalType":"address"},{"name":"_tokenB","type":"address","internalType":"address"},{"name":"arg","type":"uint256","internalType":"uint256"}],"outputs":[{"name":"pairAddr","type":"address","internalType":"address"}],"stateMutability":"nonpayable"},{"type":"function","name":"getPair","inputs":[{"name":"","type":"address","internalType":"address"},{"name":"","type":"address","internalType":"address"}],"outputs":[{"name":"","type":"address","internalType":"address"}],"stateMutability":"view"},{"type":"event","name":"Log","inputs":[{"name":"salt","type":"bytes32","indexed":false,"internalType":"bytes32"}],"anonymous":false}],"bytecode":{"object":"0x6080604052348015600e575f5ffd5b50610f988061001c5f395ff3fe608060405234801561000f575f5ffd5b506004361061004a575f3560e01c80631e3dd18b1461004e5780637a4ce0861461007e578063bd782b6c146100ae578063e6a43905146100de575b5f5ffd5b610068600480360381019061006391906106de565b61010e565b6040516100759190610748565b60405180910390f35b6100986004803603810190610093919061078b565b610149565b6040516100a59190610748565b60405180910390f35b6100c860048036038101906100c3919061078b565b6102d0565b6040516100d59190610748565b60405180910390f35b6100f860048036038101906100f391906107db565b61065e565b6040516101059190610748565b60405180910390f35b6001818154811061011d575f80fd5b905f5260205f20015f915054906101000a900473ffffffffffffffffffffffffffffffffffffffff1681565b5f8273ffffffffffffffffffffffffffffffffffffffff168473ffffffffffffffffffffffffffffffffffffffff16036101b8576040517f08c379a00000000000000000000000000000000000000000000000000000000081526004016101af90610873565b60405180910390fd5b5f5f8473ffffffffffffffffffffffffffffffffffffffff168673ffffffffffffffffffffffffffffffffffffffff16106101f45784866101f7565b85855b915091505f828260405160200161020f9291906108d6565b60405160208183030381529060405280519060200120905060ff60f81b30826040518060200161023e9061069a565b6020820181038252601f19601f82011660405250886040516020016102639190610910565b60405160208183030381529060405260405160200161028392919061097b565b604051602081830303815290604052805190602001206040516020016102ac9493929190610a12565b604051602081830303815290604052805190602001205f1c93505050509392505050565b5f8273ffffffffffffffffffffffffffffffffffffffff168473ffffffffffffffffffffffffffffffffffffffff160361033f576040517f08c379a000000000000000000000000000000000000000000000000000000000815260040161033690610873565b60405180910390fd5b5f5f8473ffffffffffffffffffffffffffffffffffffffff168673ffffffffffffffffffffffffffffffffffffffff161061037b57848661037e565b85855b915091505f82826040516020016103969291906108d6565b6040516020818303038152906040528051906020012090507f32d5ab96f608074ecb7a2188938a6154ca0cb72029f98b277aa9284b9d47f5c3816040516103dd9190610a6e565b60405180910390a15f81866040516103f49061069a565b6103fe9190610910565b8190604051809103905ff590508015801561041b573d5f5f3e3d5ffd5b5090508073ffffffffffffffffffffffffffffffffffffffff1663485cc95589896040518363ffffffff1660e01b8152600401610459929190610a87565b5f604051808303815f87803b158015610470575f5ffd5b505af1158015610482573d5f5f3e3d5ffd5b50505050809450600185908060018154018082558091505060019003905f5260205f20015f9091909190916101000a81548173ffffffffffffffffffffffffffffffffffffffff021916908373ffffffffffffffffffffffffffffffffffffffff160217905550845f5f8a73ffffffffffffffffffffffffffffffffffffffff1673ffffffffffffffffffffffffffffffffffffffff1681526020019081526020015f205f8973ffffffffffffffffffffffffffffffffffffffff1673ffffffffffffffffffffffffffffffffffffffff1681526020019081526020015f205f6101000a81548173ffffffffffffffffffffffffffffffffffffffff021916908373ffffffffffffffffffffffffffffffffffffffff160217905550845f5f8973ffffffffffffffffffffffffffffffffffffffff1673ffffffffffffffffffffffffffffffffffffffff1681526020019081526020015f205f8a73ffffffffffffffffffffffffffffffffffffffff1673ffffffffffffffffffffffffffffffffffffffff1681526020019081526020015f205f6101000a81548173ffffffffffffffffffffffffffffffffffffffff021916908373ffffffffffffffffffffffffffffffffffffffff160217905550505050509392505050565b5f602052815f5260405f20602052805f5260405f205f915091509054906101000a900473ffffffffffffffffffffffffffffffffffffffff1681565b6104b480610aaf83390190565b5f5ffd5b5f819050919050565b6106bd816106ab565b81146106c7575f5ffd5b50565b5f813590506106d8816106b4565b92915050565b5f602082840312156106f3576106f26106a7565b5b5f610700848285016106ca565b91505092915050565b5f73ffffffffffffffffffffffffffffffffffffffff82169050919050565b5f61073282610709565b9050919050565b61074281610728565b82525050565b5f60208201905061075b5f830184610739565b92915050565b61076a81610728565b8114610774575f5ffd5b50565b5f8135905061078581610761565b92915050565b5f5f5f606084860312156107a2576107a16106a7565b5b5f6107af86828701610777565b93505060206107c086828701610777565b92505060406107d1868287016106ca565b9150509250925092565b5f5f604083850312156107f1576107f06106a7565b5b5f6107fe85828601610777565b925050602061080f85828601610777565b9150509250929050565b5f82825260208201905092915050565b7f4964656e746963616c20616464726573736573000000000000000000000000005f82015250565b5f61085d601383610819565b915061086882610829565b602082019050919050565b5f6020820190508181035f83015261088a81610851565b9050919050565b5f8160601b9050919050565b5f6108a782610891565b9050919050565b5f6108b88261089d565b9050919050565b6108d06108cb82610728565b6108ae565b82525050565b5f6108e182856108bf565b6014820191506108f182846108bf565b6014820191508190509392505050565b61090a816106ab565b82525050565b5f6020820190506109235f830184610901565b92915050565b5f81519050919050565b5f81905092915050565b8281835e5f83830152505050565b5f61095582610929565b61095f8185610933565b935061096f81856020860161093d565b80840191505092915050565b5f610986828561094b565b9150610992828461094b565b91508190509392505050565b5f7fff0000000000000000000000000000000000000000000000000000000000000082169050919050565b5f819050919050565b6109e36109de8261099e565b6109c9565b82525050565b5f819050919050565b5f819050919050565b610a0c610a07826109e9565b6109f2565b82525050565b5f610a1d82876109d2565b600182019150610a2d82866108bf565b601482019150610a3d82856109fb565b602082019150610a4d82846109fb565b60208201915081905095945050505050565b610a68816109e9565b82525050565b5f602082019050610a815f830184610a5f565b92915050565b5f604082019050610a9a5f830185610739565b610aa76020830184610739565b939250505056fe60806040525f5f556040516104b43803806104b483398181016040528101906026919060a3565b805f819055503360015f6101000a81548173ffffffffffffffffffffffffffffffffffffffff021916908373ffffffffffffffffffffffffffffffffffffffff1602179055505060c9565b5f5ffd5b5f819050919050565b6085816075565b8114608e575f5ffd5b50565b5f81519050609d81607e565b92915050565b5f6020828403121560b55760b46071565b5b5f60c0848285016091565b91505092915050565b6103de806100d65f395ff3fe608060405234801561000f575f5ffd5b506004361061004a575f3560e01c80630dfe16811461004e578063485cc9551461006c578063c45a015514610088578063d21220a7146100a6575b5f5ffd5b6100566100c4565b6040516100639190610285565b60405180910390f35b610086600480360381019061008191906102cc565b6100e9565b005b6100906101fc565b60405161009d9190610285565b60405180910390f35b6100ae610221565b6040516100bb9190610285565b60405180910390f35b60025f9054906101000a900473ffffffffffffffffffffffffffffffffffffffff1681565b60015f9054906101000a900473ffffffffffffffffffffffffffffffffffffffff1673ffffffffffffffffffffffffffffffffffffffff163373ffffffffffffffffffffffffffffffffffffffff1614610178576040517f08c379a000000000000000000000000000000000000000000000000000000000815260040161016f9061038a565b60405180910390fd5b8160025f6101000a81548173ffffffffffffffffffffffffffffffffffffffff021916908373ffffffffffffffffffffffffffffffffffffffff1602179055508060035f6101000a81548173ffffffffffffffffffffffffffffffffffffffff021916908373ffffffffffffffffffffffffffffffffffffffff1602179055505050565b60015f9054906101000a900473ffffffffffffffffffffffffffffffffffffffff1681565b60035f9054906101000a900473ffffffffffffffffffffffffffffffffffffffff1681565b5f73ffffffffffffffffffffffffffffffffffffffff82169050919050565b5f61026f82610246565b9050919050565b61027f81610265565b82525050565b5f6020820190506102985f830184610276565b92915050565b5f5ffd5b6102ab81610265565b81146102b5575f5ffd5b50565b5f813590506102c6816102a2565b92915050565b5f5f604083850312156102e2576102e161029e565b5b5f6102ef858286016102b8565b9250506020610300858286016102b8565b9150509250929050565b5f82825260208201905092915050565b7f464f5242494444454e3a204f6e6c7920666163746f72792063616e20696e69745f8201527f69616c697a650000000000000000000000000000000000000000000000000000602082015250565b5f61037460268361030a565b915061037f8261031a565b604082019050919050565b5f6020820190508181035f8301526103a181610368565b905091905056fea2646970667358221220d13d506dc60e15e6c705c17987e17172db58acf411d4ca7c8cc2a7f3e6f2164164736f6c634300081e0033a26469706673582212201e66c3b800105a89ae6e36e7441d3538663eaa314b203fc48c14f9308fc28e1f64736f6c634300081e0033","linkReferences":{}},"methodIdentifiers":{"allPairs(uint256)":"1e3dd18b","calculateAddr(address,address,uint256)":"7a4ce086","createPair2(address,address,uint256)":"bd782b6c","getPair(address,address)":"e6a43905"},"id":19}