{"abi":[{"type":"constructor","inputs":[{"name":"_x","type":"uint256","internalType":"uint256"}],"stateMutability":"payable"},{"type":"function","name":"factory","inputs":[],"outputs":[{"name":"","type":"address","internalType":"address"}],"stateMutability":"view"},{"type":"function","name":"initialize","inputs":[{"name":"_token0","type":"address","internalType":"address"},{"name":"_token1","type":"address","internalType":"address"}],"outputs":[],"stateMutability":"nonpayable"},{"type":"function","name":"token0","inputs":[],"outputs":[{"name":"","type":"address","internalType":"address"}],"stateMutability":"view"},{"type":"function","name":"token1","inputs":[],"outputs":[{"name":"","type":"address","internalType":"address"}],"stateMutability":"view"}],"bytecode":{"object":"0x60806040525f5f556040516104b43803806104b483398181016040528101906026919060a3565b805f819055503360015f6101000a81548173ffffffffffffffffffffffffffffffffffffffff021916908373ffffffffffffffffffffffffffffffffffffffff1602179055505060c9565b5f5ffd5b5f819050919050565b6085816075565b8114608e575f5ffd5b50565b5f81519050609d81607e565b92915050565b5f6020828403121560b55760b46071565b5b5f60c0848285016091565b91505092915050565b6103de806100d65f395ff3fe608060405234801561000f575f5ffd5b506004361061004a575f3560e01c80630dfe16811461004e578063485cc9551461006c578063c45a015514610088578063d21220a7146100a6575b5f5ffd5b6100566100c4565b6040516100639190610285565b60405180910390f35b610086600480360381019061008191906102cc565b6100e9565b005b6100906101fc565b60405161009d9190610285565b60405180910390f35b6100ae610221565b6040516100bb9190610285565b60405180910390f35b60025f9054906101000a900473ffffffffffffffffffffffffffffffffffffffff1681565b60015f9054906101000a900473ffffffffffffffffffffffffffffffffffffffff1673ffffffffffffffffffffffffffffffffffffffff163373ffffffffffffffffffffffffffffffffffffffff1614610178576040517f08c379a000000000000000000000000000000000000000000000000000000000815260040161016f9061038a565b60405180910390fd5b8160025f6101000a81548173ffffffffffffffffffffffffffffffffffffffff021916908373ffffffffffffffffffffffffffffffffffffffff1602179055508060035f6101000a81548173ffffffffffffffffffffffffffffffffffffffff021916908373ffffffffffffffffffffffffffffffffffffffff1602179055505050565b60015f9054906101000a900473ffffffffffffffffffffffffffffffffffffffff1681565b60035f9054906101000a900473ffffffffffffffffffffffffffffffffffffffff1681565b5f73ffffffffffffffffffffffffffffffffffffffff82169050919050565b5f61026f82610246565b9050919050565b61027f81610265565b82525050565b5f6020820190506102985f830184610276565b92915050565b5f5ffd5b6102ab81610265565b81146102b5575f5ffd5b50565b5f813590506102c6816102a2565b92915050565b5f5f604083850312156102e2576102e161029e565b5b5f6102ef858286016102b8565b9250506020610300858286016102b8565b9150509250929050565b5f82825260208201905092915050565b7f464f5242494444454e3a204f6e6c7920666163746f72792063616e20696e69745f8201527f69616c697a650000000000000000000000000000000000000000000000000000602082015250565b5f61037460268361030a565b915061037f8261031a565b604082019050919050565b5f6020820190508181035f8301526103a181610368565b905091905056fea2646970667358221220d13d506dc60e15e6c705c17987e17172db58acf411d4ca7c8cc2a7f3e6f2164164736f6c634300081e0033","linkReferences":{}},"methodIdentifiers":{"factory()":"c45a0155","initialize(address,address)":"485cc955","token0()":"0dfe1681","token1()":"d21220a7"},"id":19}