{"abi":[{"type":"constructor","inputs":[{"name":"_tokenContract","type":"address","internalType":"address"}],"stateMutability":"nonpayable"},{"type":"function","name":"amountAllowed","inputs":[],"outputs":[{"name":"","type":"uint256","internalType":"uint256"}],"stateMutability":"view"},{"type":"function","name":"requestToken","inputs":[],"outputs":[],"stateMutability":"nonpayable"},{"type":"function","name":"requestedAddress","inputs":[{"name":"","type":"address","internalType":"address"}],"outputs":[{"name":"","type":"uint256","internalType":"uint256"}],"stateMutability":"view"},{"type":"function","name":"tokenContract","inputs":[],"outputs":[{"name":"","type":"address","internalType":"address"}],"stateMutability":"view"},{"type":"event","name":"SendToken","inputs":[{"name":"to","type":"address","indexed":true,"internalType":"address"},{"name":"amount","type":"uint256","indexed":false,"internalType":"uint256"}],"anonymous":false}],"bytecode":{"object":"0x608060405260645f55348015610013575f5ffd5b50604051610607380380610607833981810160405281019061003591906100d9565b8060015f6101000a81548173ffffffffffffffffffffffffffffffffffffffff021916908373ffffffffffffffffffffffffffffffffffffffff16021790555050610104565b5f5ffd5b5f73ffffffffffffffffffffffffffffffffffffffff82169050919050565b5f6100a88261007f565b9050919050565b6100b88161009e565b81146100c2575f5ffd5b50565b5f815190506100d3816100af565b92915050565b5f602082840312156100ee576100ed61007b565b5b5f6100fb848285016100c5565b91505092915050565b6104f6806101115f395ff3fe608060405234801561000f575f5ffd5b506004361061004a575f3560e01c80634d7ec6281461004e57806355a373d6146100585780635e33dba9146100765780639ad2cd14146100a6575b5f5ffd5b6100566100c4565b005b61006061027a565b60405161006d91906102f8565b60405180910390f35b610090600480360381019061008b919061033f565b61029f565b60405161009d9190610382565b60405180910390f35b6100ae6102b4565b6040516100bb9190610382565b60405180910390f35b5f60025f3373ffffffffffffffffffffffffffffffffffffffff1673ffffffffffffffffffffffffffffffffffffffff1681526020019081526020015f205411610143576040517f08c379a000000000000000000000000000000000000000000000000000000000815260040161013a9061041b565b60405180910390fd5b5f60015f9054906101000a900473ffffffffffffffffffffffffffffffffffffffff1690505f5460025f3373ffffffffffffffffffffffffffffffffffffffff1673ffffffffffffffffffffffffffffffffffffffff1681526020019081526020015f20819055508073ffffffffffffffffffffffffffffffffffffffff1663a9059cbb335f546040518363ffffffff1660e01b81526004016101e7929190610439565b6020604051808303815f875af1158015610203573d5f5f3e3d5ffd5b505050506040513d601f19601f820116820180604052508101906102279190610495565b503373ffffffffffffffffffffffffffffffffffffffff167f916800025d85907d1e91e112659a8e7e77a17ea4de231b05f15bb381d3bfde615f5460405161026f9190610382565b60405180910390a250565b60015f9054906101000a900473ffffffffffffffffffffffffffffffffffffffff1681565b6002602052805f5260405f205f915090505481565b5f5481565b5f73ffffffffffffffffffffffffffffffffffffffff82169050919050565b5f6102e2826102b9565b9050919050565b6102f2816102d8565b82525050565b5f60208201905061030b5f8301846102e9565b92915050565b5f5ffd5b61031e816102d8565b8114610328575f5ffd5b50565b5f8135905061033981610315565b92915050565b5f6020828403121561035457610353610311565b5b5f6103618482850161032b565b91505092915050565b5f819050919050565b61037c8161036a565b82525050565b5f6020820190506103955f830184610373565b92915050565b5f82825260208201905092915050565b7f596f75206861766520616c72656164792072657175657374656420746f6b656e5f8201527f732e000000000000000000000000000000000000000000000000000000000000602082015250565b5f61040560228361039b565b9150610410826103ab565b604082019050919050565b5f6020820190508181035f830152610432816103f9565b9050919050565b5f60408201905061044c5f8301856102e9565b6104596020830184610373565b9392505050565b5f8115159050919050565b61047481610460565b811461047e575f5ffd5b50565b5f8151905061048f8161046b565b92915050565b5f602082840312156104aa576104a9610311565b5b5f6104b784828501610481565b9150509291505056fea264697066735822122096ee272c0556f5e7c9556bd38aeddfeb5f196d2bec23d2868c8975f35069916964736f6c634300081e0033","linkReferences":{}},"methodIdentifiers":{"amountAllowed()":"9ad2cd14","requestToken()":"4d7ec628","requestedAddress(address)":"5e33dba9","tokenContract()":"55a373d6"},"id":24}