{"abi":[{"type":"function","name":"callSetN","inputs":[{"name":"_addr","type":"address","internalType":"address"},{"name":"_n","type":"uint256","internalType":"uint256"}],"outputs":[{"name":"","type":"bool","internalType":"bool"},{"name":"","type":"bytes","internalType":"bytes"}],"stateMutability":"nonpayable"},{"type":"function","name":"delegatecallSetN","inputs":[{"name":"_addr","type":"address","internalType":"address"},{"name":"_n","type":"uint256","internalType":"uint256"}],"outputs":[{"name":"","type":"bool","internalType":"bool"},{"name":"","type":"bytes","internalType":"bytes"}],"stateMutability":"nonpayable"},{"type":"function","name":"getN","inputs":[],"outputs":[{"name":"","type":"uint256","internalType":"uint256"}],"stateMutability":"view"},{"type":"function","name":"n","inputs":[],"outputs":[{"name":"","type":"uint256","internalType":"uint256"}],"stateMutability":"view"},{"type":"function","name":"sender","inputs":[],"outputs":[{"name":"","type":"address","internalType":"address"}],"stateMutability":"view"}],"bytecode":{"object":"0x6080604052348015600e575f5ffd5b506105b58061001c5f395ff3fe608060405234801561000f575f5ffd5b5060043610610055575f3560e01c80632e52d606146100595780633e9552251461007757806367e404ce146100955780639b58bc26146100b3578063eea4c864146100e4575b5f5ffd5b610061610115565b60405161006e9190610370565b60405180910390f35b61007f61011a565b60405161008c9190610370565b60405180910390f35b61009d610122565b6040516100aa91906103c8565b60405180910390f35b6100cd60048036038101906100c89190610439565b610147565b6040516100db929190610501565b60405180910390f35b6100fe60048036038101906100f99190610439565b61024f565b60405161010c929190610501565b60405180910390f35b5f5481565b5f5f54905090565b60015f9054906101000a900473ffffffffffffffffffffffffffffffffffffffff1681565b5f60605f5f8573ffffffffffffffffffffffffffffffffffffffff16856040516024016101749190610370565b6040516020818303038152906040527f3f7a0270000000000000000000000000000000000000000000000000000000007bffffffffffffffffffffffffffffffffffffffffffffffffffffffff19166020820180517bffffffffffffffffffffffffffffffffffffffffffffffffffffffff83818316178352505050506040516101fe9190610569565b5f60405180830381855af49150503d805f8114610236576040519150601f19603f3d011682016040523d82523d5f602084013e61023b565b606091505b509150915081819350935050509250929050565b5f60605f5f8573ffffffffffffffffffffffffffffffffffffffff168560405160240161027c9190610370565b6040516020818303038152906040527f3f7a0270000000000000000000000000000000000000000000000000000000007bffffffffffffffffffffffffffffffffffffffffffffffffffffffff19166020820180517bffffffffffffffffffffffffffffffffffffffffffffffffffffffff83818316178352505050506040516103069190610569565b5f604051808303815f865af19150503d805f811461033f576040519150601f19603f3d011682016040523d82523d5f602084013e610344565b606091505b509150915081819350935050509250929050565b5f819050919050565b61036a81610358565b82525050565b5f6020820190506103835f830184610361565b92915050565b5f73ffffffffffffffffffffffffffffffffffffffff82169050919050565b5f6103b282610389565b9050919050565b6103c2816103a8565b82525050565b5f6020820190506103db5f8301846103b9565b92915050565b5f5ffd5b6103ee816103a8565b81146103f8575f5ffd5b50565b5f81359050610409816103e5565b92915050565b61041881610358565b8114610422575f5ffd5b50565b5f813590506104338161040f565b92915050565b5f5f6040838503121561044f5761044e6103e1565b5b5f61045c858286016103fb565b925050602061046d85828601610425565b9150509250929050565b5f8115159050919050565b61048b81610477565b82525050565b5f81519050919050565b5f82825260208201905092915050565b8281835e5f83830152505050565b5f601f19601f8301169050919050565b5f6104d382610491565b6104dd818561049b565b93506104ed8185602086016104ab565b6104f6816104b9565b840191505092915050565b5f6040820190506105145f830185610482565b818103602083015261052681846104c9565b90509392505050565b5f81905092915050565b5f61054382610491565b61054d818561052f565b935061055d8185602086016104ab565b80840191505092915050565b5f6105748284610539565b91508190509291505056fea2646970667358221220ccad4e4ca0fd6f713acd1381439adbf514c33e17379d58827b381d86186c488164736f6c634300081e0033","linkReferences":{}},"methodIdentifiers":{"callSetN(address,uint256)":"eea4c864","delegatecallSetN(address,uint256)":"9b58bc26","getN()":"3e955225","n()":"2e52d606","sender()":"67e404ce"},"id":19}