{"abi":[{"type":"function","name":"getN","inputs":[],"outputs":[{"name":"","type":"uint256","internalType":"uint256"}],"stateMutability":"view"},{"type":"function","name":"n","inputs":[],"outputs":[{"name":"","type":"uint256","internalType":"uint256"}],"stateMutability":"view"},{"type":"function","name":"sender","inputs":[],"outputs":[{"name":"","type":"address","internalType":"address"}],"stateMutability":"view"},{"type":"function","name":"setN","inputs":[{"name":"_n","type":"uint256","internalType":"uint256"}],"outputs":[],"stateMutability":"nonpayable"}],"bytecode":{"object":"0x6080604052348015600e575f5ffd5b506102578061001c5f395ff3fe608060405234801561000f575f5ffd5b506004361061004a575f3560e01c80632e52d6061461004e5780633e9552251461006c5780633f7a02701461008a57806367e404ce146100a6575b5f5ffd5b6100566100c4565b6040516100639190610157565b60405180910390f35b6100746100c9565b6040516100819190610157565b60405180910390f35b6100a4600480360381019061009f919061019e565b6100d1565b005b6100ae61011a565b6040516100bb9190610208565b60405180910390f35b5f5481565b5f5f54905090565b805f819055503360015f6101000a81548173ffffffffffffffffffffffffffffffffffffffff021916908373ffffffffffffffffffffffffffffffffffffffff16021790555050565b60015f9054906101000a900473ffffffffffffffffffffffffffffffffffffffff1681565b5f819050919050565b6101518161013f565b82525050565b5f60208201905061016a5f830184610148565b92915050565b5f5ffd5b61017d8161013f565b8114610187575f5ffd5b50565b5f8135905061019881610174565b92915050565b5f602082840312156101b3576101b2610170565b5b5f6101c08482850161018a565b91505092915050565b5f73ffffffffffffffffffffffffffffffffffffffff82169050919050565b5f6101f2826101c9565b9050919050565b610202816101e8565b82525050565b5f60208201905061021b5f8301846101f9565b9291505056fea2646970667358221220c5aa4d71b772aed06ea5f4218b63ad663c996c10f80446a4d98c806b801e66b864736f6c634300081e0033","linkReferences":{}},"methodIdentifiers":{"getN()":"3e955225","n()":"2e52d606","sender()":"67e404ce","setN(uint256)":"3f7a0270"},"id":19}