{"abi":[{"type":"constructor","inputs":[],"stateMutability":"nonpayable"},{"type":"function","name":"b1","inputs":[],"outputs":[],"stateMutability":"nonpayable"},{"type":"function","name":"b2","inputs":[],"outputs":[{"name":"","type":"string","internalType":"string"}],"stateMutability":"pure"},{"type":"event","name":"Log","inputs":[{"name":"message","type":"string","indexed":false,"internalType":"string"},{"name":"value","type":"uint256","indexed":false,"internalType":"uint256"}],"anonymous":false}],"bytecode":{"object":"0x6080604052348015600e575f5ffd5b5061025e8061001c5f395ff3fe608060405234801561000f575f5ffd5b5060043610610034575f3560e01c80630add6ef214610038578063ee49500214610056575b5f5ffd5b610040610060565b60405161004d9190610147565b60405180910390f35b61005e61009d565b005b60606040518060400160405280600981526020017f62322063616c6c65640000000000000000000000000000000000000000000000815250905090565b7fdd970dd9b5bfe707922155b058a407655cb18288b807e2216442bca8ad83d6b560016040516100cd91906101fc565b60405180910390a1565b5f81519050919050565b5f82825260208201905092915050565b8281835e5f83830152505050565b5f601f19601f8301169050919050565b5f610119826100d7565b61012381856100e1565b93506101338185602086016100f1565b61013c816100ff565b840191505092915050565b5f6020820190508181035f83015261015f818461010f565b905092915050565b7f62312063616c6c656400000000000000000000000000000000000000000000005f82015250565b5f61019b6009836100e1565b91506101a682610167565b602082019050919050565b5f819050919050565b5f819050919050565b5f819050919050565b5f6101e66101e16101dc846101b1565b6101c3565b6101ba565b9050919050565b6101f6816101cc565b82525050565b5f6040820190508181035f8301526102138161018f565b905061022260208301846101ed565b9291505056fea2646970667358221220a71978f5efb30f503731db51118ae44bbcff5967b20a8a2639c602e17c32824264736f6c634300081e0033","linkReferences":{}},"methodIdentifiers":{"b1()":"ee495002","b2()":"0add6ef2"},"id":25}