{"abi":[{"type":"function","name":"callGetA","inputs":[{"name":"_contractAddress","type":"address","internalType":"contract ContractA"}],"outputs":[{"name":"a","type":"uint256","internalType":"uint256"}],"stateMutability":"view"},{"type":"function","name":"callSetA","inputs":[{"name":"_contractAddress","type":"address","internalType":"address payable"},{"name":"_a","type":"uint256","internalType":"uint256"}],"outputs":[],"stateMutability":"payable"},{"type":"function","name":"callSetA2","inputs":[{"name":"_contractAddress","type":"address","internalType":"address payable"}],"outputs":[{"name":"a","type":"uint256","internalType":"uint256"}],"stateMutability":"view"},{"type":"function","name":"setTransferETH","inputs":[{"name":"_contractAddress","type":"address","internalType":"address payable"},{"name":"_value","type":"uint256","internalType":"uint256"}],"outputs":[],"stateMutability":"payable"}],"bytecode":{"object":"0x6080604052348015600e575f5ffd5b506104b48061001c5f395ff3fe60806040526004361061003e575f3560e01c8063687e1537146100425780636cdcbf091461005e578063c0383ab91461007a578063d34f60a3146100b6575b5f5ffd5b61005c60048036038101906100579190610348565b6100f2565b005b61007860048036038101906100739190610348565b61015e565b005b348015610085575f5ffd5b506100a0600480360381019061009b91906103c1565b6101c8565b6040516100ad91906103fb565b60405180910390f35b3480156100c1575f5ffd5b506100dc60048036038101906100d79190610414565b61023d565b6040516100e991906103fb565b60405180910390f35b8173ffffffffffffffffffffffffffffffffffffffff1663ee919d5034836040518363ffffffff1660e01b815260040161012c91906103fb565b5f604051808303818588803b158015610143575f5ffd5b505af1158015610155573d5f5f3e3d5ffd5b50505050505050565b8173ffffffffffffffffffffffffffffffffffffffff1663ee919d50826040518263ffffffff1660e01b815260040161019791906103fb565b5f604051808303815f87803b1580156101ae575f5ffd5b505af11580156101c0573d5f5f3e3d5ffd5b505050505050565b5f8173ffffffffffffffffffffffffffffffffffffffff1663d46300fd6040518163ffffffff1660e01b8152600401602060405180830381865afa158015610212573d5f5f3e3d5ffd5b505050506040513d601f19601f820116820180604052508101906102369190610453565b9050919050565b5f5f8290508073ffffffffffffffffffffffffffffffffffffffff1663d46300fd6040518163ffffffff1660e01b8152600401602060405180830381865afa15801561028b573d5f5f3e3d5ffd5b505050506040513d601f19601f820116820180604052508101906102af9190610453565b915050919050565b5f5ffd5b5f73ffffffffffffffffffffffffffffffffffffffff82169050919050565b5f6102e4826102bb565b9050919050565b6102f4816102da565b81146102fe575f5ffd5b50565b5f8135905061030f816102eb565b92915050565b5f819050919050565b61032781610315565b8114610331575f5ffd5b50565b5f813590506103428161031e565b92915050565b5f5f6040838503121561035e5761035d6102b7565b5b5f61036b85828601610301565b925050602061037c85828601610334565b9150509250929050565b5f610390826102da565b9050919050565b6103a081610386565b81146103aa575f5ffd5b50565b5f813590506103bb81610397565b92915050565b5f602082840312156103d6576103d56102b7565b5b5f6103e3848285016103ad565b91505092915050565b6103f581610315565b82525050565b5f60208201905061040e5f8301846103ec565b92915050565b5f60208284031215610429576104286102b7565b5b5f61043684828501610301565b91505092915050565b5f8151905061044d8161031e565b92915050565b5f60208284031215610468576104676102b7565b5b5f6104758482850161043f565b9150509291505056fea2646970667358221220c99300be035f525ef180a3f614769fd75cb61f5de861cc513ea34e8dee7dcafe64736f6c634300081e0033","linkReferences":{}},"methodIdentifiers":{"callGetA(address)":"c0383ab9","callSetA(address,uint256)":"6cdcbf09","callSetA2(address)":"d34f60a3","setTransferETH(address,uint256)":"687e1537"},"id":19}