{"abi":[{"type":"function","name":"callGetA","inputs":[{"name":"_addr","type":"address","internalType":"address payable"}],"outputs":[{"name":"","type":"uint256","internalType":"uint256"}],"stateMutability":"nonpayable"},{"type":"function","name":"callNonExistentFunction","inputs":[{"name":"_addr","type":"address","internalType":"address payable"}],"outputs":[{"name":"","type":"uint256","internalType":"uint256"}],"stateMutability":"nonpayable"},{"type":"function","name":"callSetA","inputs":[{"name":"_addr","type":"address","internalType":"address payable"},{"name":"a","type":"uint256","internalType":"uint256"}],"outputs":[],"stateMutability":"payable"},{"type":"event","name":"Res","inputs":[{"name":"success","type":"bool","indexed":false,"internalType":"bool"},{"name":"data","type":"bytes","indexed":false,"internalType":"bytes"}],"anonymous":false}],"bytecode":{"object":"0x6080604052348015600e575f5ffd5b506108b68061001c5f395ff3fe608060405260043610610033575f3560e01c8063172a57d7146100375780636cdcbf0914610073578063c0383ab91461008f575b5f5ffd5b348015610042575f5ffd5b5061005d600480360381019061005891906105fd565b6100cb565b60405161006a9190610640565b60405180910390f35b61008d60048036038101906100889190610683565b610297565b005b34801561009a575f5ffd5b506100b560048036038101906100b091906105fd565b610416565b6040516100c29190610640565b60405180910390f35b5f5f5f8373ffffffffffffffffffffffffffffffffffffffff166040516024016040516020818303038152906040527f15667403000000000000000000000000000000000000000000000000000000007bffffffffffffffffffffffffffffffffffffffffffffffffffffffff19166020820180517bffffffffffffffffffffffffffffffffffffffffffffffffffffffff83818316178352505050506040516101759190610713565b5f604051808303815f865af19150503d805f81146101ae576040519150601f19603f3d011682016040523d82523d5f602084013e6101b3565b606091505b50915091507f8da064e726c2194e5aa86fe1550237b1c427baa984d2aa1fe92a94084a2fcce582826040516101e992919061079b565b60405180910390a15f151582151514610237576040517f08c379a000000000000000000000000000000000000000000000000000000000815260040161022e90610823565b60405180910390fd5b5f81511461027a576040517f08c379a000000000000000000000000000000000000000000000000000000000815260040161027190610823565b60405180910390fd5b8080602001905181019061028e9190610855565b92505050919050565b5f5f8373ffffffffffffffffffffffffffffffffffffffff1634846040516024016102c29190610640565b6040516020818303038152906040527fee919d50000000000000000000000000000000000000000000000000000000007bffffffffffffffffffffffffffffffffffffffffffffffffffffffff19166020820180517bffffffffffffffffffffffffffffffffffffffffffffffffffffffff838183161783525050505060405161034c9190610713565b5f6040518083038185875af1925050503d805f8114610386576040519150601f19603f3d011682016040523d82523d5f602084013e61038b565b606091505b50915091507f8da064e726c2194e5aa86fe1550237b1c427baa984d2aa1fe92a94084a2fcce582826040516103c192919061079b565b60405180910390a16001151582151514610410576040517f08c379a000000000000000000000000000000000000000000000000000000000815260040161040790610823565b60405180910390fd5b50505050565b5f5f5f8373ffffffffffffffffffffffffffffffffffffffff166040516024016040516020818303038152906040527fd46300fd000000000000000000000000000000000000000000000000000000007bffffffffffffffffffffffffffffffffffffffffffffffffffffffff19166020820180517bffffffffffffffffffffffffffffffffffffffffffffffffffffffff83818316178352505050506040516104c09190610713565b5f60405180830381855afa9150503d805f81146104f8576040519150601f19603f3d011682016040523d82523d5f602084013e6104fd565b606091505b50915091507f8da064e726c2194e5aa86fe1550237b1c427baa984d2aa1fe92a94084a2fcce5828260405161053392919061079b565b60405180910390a16001151582151514610582576040517f08c379a000000000000000000000000000000000000000000000000000000000815260040161057990610823565b60405180910390fd5b808060200190518101906105969190610855565b92505050919050565b5f5ffd5b5f73ffffffffffffffffffffffffffffffffffffffff82169050919050565b5f6105cc826105a3565b9050919050565b6105dc816105c2565b81146105e6575f5ffd5b50565b5f813590506105f7816105d3565b92915050565b5f602082840312156106125761061161059f565b5b5f61061f848285016105e9565b91505092915050565b5f819050919050565b61063a81610628565b82525050565b5f6020820190506106535f830184610631565b92915050565b61066281610628565b811461066c575f5ffd5b50565b5f8135905061067d81610659565b92915050565b5f5f604083850312156106995761069861059f565b5b5f6106a6858286016105e9565b92505060206106b78582860161066f565b9150509250929050565b5f81519050919050565b5f81905092915050565b8281835e5f83830152505050565b5f6106ed826106c1565b6106f781856106cb565b93506107078185602086016106d5565b80840191505092915050565b5f61071e82846106e3565b915081905092915050565b5f8115159050919050565b61073d81610729565b82525050565b5f82825260208201905092915050565b5f601f19601f8301169050919050565b5f61076d826106c1565b6107778185610743565b93506107878185602086016106d5565b61079081610753565b840191505092915050565b5f6040820190506107ae5f830185610734565b81810360208301526107c08184610763565b90509392505050565b5f82825260208201905092915050565b7f63616c6c206661696c65640000000000000000000000000000000000000000005f82015250565b5f61080d600b836107c9565b9150610818826107d9565b602082019050919050565b5f6020820190508181035f83015261083a81610801565b9050919050565b5f8151905061084f81610659565b92915050565b5f6020828403121561086a5761086961059f565b5b5f61087784828501610841565b9150509291505056fea26469706673582212208e3eee579ac9c991db42b0b1cf0646cb8c9e9432c0072ec927f20e17b0a2e6af64736f6c634300081e0033","linkReferences":{}},"methodIdentifiers":{"callGetA(address)":"c0383ab9","callNonExistentFunction(address)":"172a57d7","callSetA(address,uint256)":"6cdcbf09"},"id":19}