{"abi":[{"type":"receive","stateMutability":"payable"},{"type":"function","name":"_a","inputs":[],"outputs":[{"name":"","type":"uint256","internalType":"uint256"}],"stateMutability":"view"},{"type":"function","name":"getA","inputs":[],"outputs":[{"name":"","type":"uint256","internalType":"uint256"}],"stateMutability":"view"},{"type":"function","name":"getBalance","inputs":[],"outputs":[{"name":"","type":"uint256","internalType":"uint256"}],"stateMutability":"view"},{"type":"function","name":"setA","inputs":[{"name":"a","type":"uint256","internalType":"uint256"}],"outputs":[],"stateMutability":"payable"},{"type":"event","name":"Log","inputs":[{"name":"amount","type":"uint256","indexed":false,"internalType":"uint256"},{"name":"gas","type":"uint256","indexed":false,"internalType":"uint256"}],"anonymous":false}],"bytecode":{"object":"0x60806040525f5f555f6001553480156015575f5ffd5b5061022d806100235f395ff3fe608060405260043610610042575f3560e01c806312065fe01461004d578063ced7b2e314610077578063d46300fd146100a1578063ee919d50146100cb57610049565b3661004957005b5f5ffd5b348015610058575f5ffd5b506100616100e7565b60405161006e919061015e565b60405180910390f35b348015610082575f5ffd5b5061008b6100ee565b604051610098919061015e565b60405180910390f35b3480156100ac575f5ffd5b506100b56100f3565b6040516100c2919061015e565b60405180910390f35b6100e560048036038101906100e091906101a5565b6100fb565b005b5f47905090565b5f5481565b5f5f54905090565b805f819055505f341115610143577fbd0faddf87043dd749c1b9d4dca8a12589b8cb5e2106832111ce23f219b14367345a60405161013a9291906101d0565b60405180910390a15b50565b5f819050919050565b61015881610146565b82525050565b5f6020820190506101715f83018461014f565b92915050565b5f5ffd5b61018481610146565b811461018e575f5ffd5b50565b5f8135905061019f8161017b565b92915050565b5f602082840312156101ba576101b9610177565b5b5f6101c784828501610191565b91505092915050565b5f6040820190506101e35f83018561014f565b6101f0602083018461014f565b939250505056fea26469706673582212204d07743094640cbd6a955f4ff7090a5e4f42404ee5b44ad3fa966dbdc089c8dc64736f6c634300081e0033","linkReferences":{}},"methodIdentifiers":{"_a()":"ced7b2e3","getA()":"d46300fd","getBalance()":"12065fe0","setA(uint256)":"ee919d50"},"id":19}