{"abi":[{"type":"function","name":"multiTransferETH","inputs":[{"name":"_addresses","type":"address[]","internalType":"address payable[]"},{"name":"_amounts","type":"uint256[]","internalType":"uint256[]"}],"outputs":[],"stateMutability":"payable"},{"type":"function","name":"multiTransferToken","inputs":[{"name":"_token","type":"address","internalType":"address"},{"name":"_addresses","type":"address[]","internalType":"address[]"},{"name":"_amounts","type":"uint256[]","internalType":"uint256[]"}],"outputs":[],"stateMutability":"nonpayable"},{"type":"function","name":"withdrawFromFailList","inputs":[{"name":"_to","type":"address","internalType":"address"}],"outputs":[],"stateMutability":"nonpayable"}],"bytecode":{"object":"0x6080604052348015600e575f5ffd5b50610ed38061001c5f395ff3fe608060405260043610610033575f3560e01c806341ed24a21461003757806377988cf81461005f578063acacd8ee1461007b575b5f5ffd5b348015610042575f5ffd5b5061005d600480360381019061005891906107f2565b6100a3565b005b610079600480360381019061007491906108d8565b6102dc565b005b348015610086575f5ffd5b506100a1600480360381019061009c9190610956565b610518565b005b8181905084849050146100eb576040517f08c379a00000000000000000000000000000000000000000000000000000000081526004016100e290610a01565b60405180910390fd5b5f8590505f6101398484808060200260200160405190810160405280939291908181526020018383602002808284375f81840152601f19601f82011690508083019250505050505050610688565b9050808273ffffffffffffffffffffffffffffffffffffffff1663dd62ed3e33306040518363ffffffff1660e01b8152600401610177929190610a2e565b602060405180830381865afa158015610192573d5f5f3e3d5ffd5b505050506040513d601f19601f820116820180604052508101906101b69190610a88565b10156101f7576040517f08c379a00000000000000000000000000000000000000000000000000000000081526004016101ee90610b23565b60405180910390fd5b5f5f90505b868690508110156102d2578273ffffffffffffffffffffffffffffffffffffffff166323b872dd3389898581811061023757610236610b41565b5b905060200201602081019061024c9190610956565b88888681811061025f5761025e610b41565b5b905060200201356040518463ffffffff1660e01b815260040161028493929190610b7d565b6020604051808303815f875af11580156102a0573d5f5f3e3d5ffd5b505050506040513d601f19601f820116820180604052508101906102c49190610be7565b5080806001019150506101fc565b5050505050505050565b818190508484905014610324576040517f08c379a000000000000000000000000000000000000000000000000000000000815260040161031b90610a01565b60405180910390fd5b5f61036e8383808060200260200160405190810160405280939291908181526020018383602002808284375f81840152601f19601f82011690508083019250505050505050610688565b90508034146103b2576040517f08c379a00000000000000000000000000000000000000000000000000000000081526004016103a990610c82565b60405180910390fd5b5f5f90505b85859050811015610510575f8686838181106103d6576103d5610b41565b5b90506020020160208101906103eb9190610cdb565b73ffffffffffffffffffffffffffffffffffffffff1685858481811061041457610413610b41565b5b9050602002013560405161042790610d33565b5f6040518083038185875af1925050503d805f8114610461576040519150601f19603f3d011682016040523d82523d5f602084013e610466565b606091505b50509050806105025784848381811061048257610481610b41565b5b905060200201355f5f89898681811061049e5761049d610b41565b5b90506020020160208101906104b39190610cdb565b73ffffffffffffffffffffffffffffffffffffffff1673ffffffffffffffffffffffffffffffffffffffff1681526020019081526020015f205f8282546104fa9190610d74565b925050819055505b5080806001019150506103b7565b505050505050565b5f5f5f3373ffffffffffffffffffffffffffffffffffffffff1673ffffffffffffffffffffffffffffffffffffffff1681526020019081526020015f205490505f811161059a576040517f08c379a000000000000000000000000000000000000000000000000000000000815260040161059190610e17565b60405180910390fd5b5f5f5f3373ffffffffffffffffffffffffffffffffffffffff1673ffffffffffffffffffffffffffffffffffffffff1681526020019081526020015f20819055505f8273ffffffffffffffffffffffffffffffffffffffff168260405161060090610d33565b5f6040518083038185875af1925050503d805f811461063a576040519150601f19603f3d011682016040523d82523d5f602084013e61063f565b606091505b5050905080610683576040517f08c379a000000000000000000000000000000000000000000000000000000000815260040161067a90610e7f565b60405180910390fd5b505050565b5f5f5f90505f5f90505b83518110156106d0578381815181106106ae576106ad610b41565b5b6020026020010151826106c19190610d74565b91508080600101915050610692565b5080915050919050565b5f5ffd5b5f5ffd5b5f73ffffffffffffffffffffffffffffffffffffffff82169050919050565b5f61070b826106e2565b9050919050565b61071b81610701565b8114610725575f5ffd5b50565b5f8135905061073681610712565b92915050565b5f5ffd5b5f5ffd5b5f5ffd5b5f5f83601f84011261075d5761075c61073c565b5b8235905067ffffffffffffffff81111561077a57610779610740565b5b60208301915083602082028301111561079657610795610744565b5b9250929050565b5f5f83601f8401126107b2576107b161073c565b5b8235905067ffffffffffffffff8111156107cf576107ce610740565b5b6020830191508360208202830111156107eb576107ea610744565b5b9250929050565b5f5f5f5f5f6060868803121561080b5761080a6106da565b5b5f61081888828901610728565b955050602086013567ffffffffffffffff811115610839576108386106de565b5b61084588828901610748565b9450945050604086013567ffffffffffffffff811115610868576108676106de565b5b6108748882890161079d565b92509250509295509295909350565b5f5f83601f8401126108985761089761073c565b5b8235905067ffffffffffffffff8111156108b5576108b4610740565b5b6020830191508360208202830111156108d1576108d0610744565b5b9250929050565b5f5f5f5f604085870312156108f0576108ef6106da565b5b5f85013567ffffffffffffffff81111561090d5761090c6106de565b5b61091987828801610883565b9450945050602085013567ffffffffffffffff81111561093c5761093b6106de565b5b6109488782880161079d565b925092505092959194509250565b5f6020828403121561096b5761096a6106da565b5b5f61097884828501610728565b91505092915050565b5f82825260208201905092915050565b7f4c656e67746873206f662061646472657373657320616e6420616d6f756e74735f8201527f206d757374206d61746368000000000000000000000000000000000000000000602082015250565b5f6109eb602b83610981565b91506109f682610991565b604082019050919050565b5f6020820190508181035f830152610a18816109df565b9050919050565b610a2881610701565b82525050565b5f604082019050610a415f830185610a1f565b610a4e6020830184610a1f565b9392505050565b5f819050919050565b610a6781610a55565b8114610a71575f5ffd5b50565b5f81519050610a8281610a5e565b92915050565b5f60208284031215610a9d57610a9c6106da565b5b5f610aaa84828501610a74565b91505092915050565b7f496e73756666696369656e7420616c6c6f77616e636520666f722061697264725f8201527f6f70000000000000000000000000000000000000000000000000000000000000602082015250565b5f610b0d602283610981565b9150610b1882610ab3565b604082019050919050565b5f6020820190508181035f830152610b3a81610b01565b9050919050565b7f4e487b71000000000000000000000000000000000000000000000000000000005f52603260045260245ffd5b610b7781610a55565b82525050565b5f606082019050610b905f830186610a1f565b610b9d6020830185610a1f565b610baa6040830184610b6e565b949350505050565b5f8115159050919050565b610bc681610bb2565b8114610bd0575f5ffd5b50565b5f81519050610be181610bbd565b92915050565b5f60208284031215610bfc57610bfb6106da565b5b5f610c0984828501610bd3565b91505092915050565b7f496e73756666696369656e74204554482073656e7420666f722061697264726f5f8201527f7000000000000000000000000000000000000000000000000000000000000000602082015250565b5f610c6c602183610981565b9150610c7782610c12565b604082019050919050565b5f6020820190508181035f830152610c9981610c60565b9050919050565b5f610caa826106e2565b9050919050565b610cba81610ca0565b8114610cc4575f5ffd5b50565b5f81359050610cd581610cb1565b92915050565b5f60208284031215610cf057610cef6106da565b5b5f610cfd84828501610cc7565b91505092915050565b5f81905092915050565b50565b5f610d1e5f83610d06565b9150610d2982610d10565b5f82019050919050565b5f610d3d82610d13565b9150819050919050565b7f4e487b71000000000000000000000000000000000000000000000000000000005f52601160045260245ffd5b5f610d7e82610a55565b9150610d8983610a55565b9250828201905080821115610da157610da0610d47565b5b92915050565b7f4e6f206661696c6564207472616e736665727320666f722074686973206164645f8201527f7265737300000000000000000000000000000000000000000000000000000000602082015250565b5f610e01602483610981565b9150610e0c82610da7565b604082019050919050565b5f6020820190508181035f830152610e2e81610df5565b9050919050565b7f4661696c207769746864726177000000000000000000000000000000000000005f82015250565b5f610e69600d83610981565b9150610e7482610e35565b602082019050919050565b5f6020820190508181035f830152610e9681610e5d565b905091905056fea2646970667358221220cdbac37fe1af8bb2278ccda55d136521bbea727ea0242b5993fe815950501dcf64736f6c634300081e0033","linkReferences":{}},"methodIdentifiers":{"multiTransferETH(address[],uint256[])":"77988cf8","multiTransferToken(address,address[],uint256[])":"41ed24a2","withdrawFromFailList(address)":"acacd8ee"},"id":21}