{"abi":[{"type":"function","name":"balances","inputs":[{"name":"","type":"address","internalType":"address"}],"outputs":[{"name":"","type":"uint256","internalType":"uint256"}],"stateMutability":"view"},{"type":"function","name":"deposit","inputs":[],"outputs":[],"stateMutability":"payable"},{"type":"function","name":"totalBalance","inputs":[],"outputs":[{"name":"","type":"uint256","internalType":"uint256"}],"stateMutability":"view"},{"type":"function","name":"withdraw","inputs":[],"outputs":[],"stateMutability":"nonpayable"}],"bytecode":{"object":"0x6080604052348015600e575f5ffd5b506105f08061001c5f395ff3fe60806040526004361061003e575f3560e01c806327e235e3146100425780633ccfd60b1461007e578063ad7a672f14610094578063d0e30db0146100be575b5f5ffd5b34801561004d575f5ffd5b506100686004803603810190610063919061034f565b6100c8565b6040516100759190610392565b60405180910390f35b348015610089575f5ffd5b506100926100dc565b005b34801561009f575f5ffd5b506100a861024b565b6040516100b59190610392565b60405180910390f35b6100c6610252565b005b5f602052805f5260405f205f915090505481565b5f5f5f3373ffffffffffffffffffffffffffffffffffffffff1673ffffffffffffffffffffffffffffffffffffffff1681526020019081526020015f205490505f811161015e576040517f08c379a00000000000000000000000000000000000000000000000000000000081526004016101559061042b565b60405180910390fd5b5f3373ffffffffffffffffffffffffffffffffffffffff168260405161018390610476565b5f6040518083038185875af1925050503d805f81146101bd576040519150601f19603f3d011682016040523d82523d5f602084013e6101c2565b606091505b5050905080610206576040517f08c379a00000000000000000000000000000000000000000000000000000000081526004016101fd906104d4565b60405180910390fd5b5f5f5f3373ffffffffffffffffffffffffffffffffffffffff1673ffffffffffffffffffffffffffffffffffffffff1681526020019081526020015f20819055505050565b5f47905090565b670de0b6b3a764000034101561029d576040517f08c379a00000000000000000000000000000000000000000000000000000000081526004016102949061053c565b60405180910390fd5b345f5f3373ffffffffffffffffffffffffffffffffffffffff1673ffffffffffffffffffffffffffffffffffffffff1681526020019081526020015f205f8282546102e89190610587565b92505081905550565b5f5ffd5b5f73ffffffffffffffffffffffffffffffffffffffff82169050919050565b5f61031e826102f5565b9050919050565b61032e81610314565b8114610338575f5ffd5b50565b5f8135905061034981610325565b92915050565b5f60208284031215610364576103636102f1565b5b5f6103718482850161033b565b91505092915050565b5f819050919050565b61038c8161037a565b82525050565b5f6020820190506103a55f830184610383565b92915050565b5f82825260208201905092915050565b7f6d757374206861766520612062616c616e6365206d6f7265207468656e2030205f8201527f746f207769746864726177000000000000000000000000000000000000000000602082015250565b5f610415602b836103ab565b9150610420826103bb565b604082019050919050565b5f6020820190508181035f83015261044281610409565b9050919050565b5f81905092915050565b50565b5f6104615f83610449565b915061046c82610453565b5f82019050919050565b5f61048082610456565b9150819050919050565b7f7769746864726177206e656564207375636365737300000000000000000000005f82015250565b5f6104be6015836103ab565b91506104c98261048a565b602082019050919050565b5f6020820190508181035f8301526104eb816104b2565b9050919050565b7f63616e74206465706f736974206c657373207468616e203120657468657200005f82015250565b5f610526601e836103ab565b9150610531826104f2565b602082019050919050565b5f6020820190508181035f8301526105538161051a565b9050919050565b7f4e487b71000000000000000000000000000000000000000000000000000000005f52601160045260245ffd5b5f6105918261037a565b915061059c8361037a565b92508282019050808211156105b4576105b361055a565b5b9291505056fea2646970667358221220141b69f713c8bf82842697c01427c0904f8d4320d44d867eb0285772de2d0dad64736f6c634300081e0033","linkReferences":{}},"methodIdentifiers":{"balances(address)":"27e235e3","deposit()":"d0e30db0","totalBalance()":"ad7a672f","withdraw()":"3ccfd60b"},"id":26}