{"abi":[{"type":"constructor","inputs":[{"name":"_name","type":"string","internalType":"string"},{"name":"_symbol","type":"string","internalType":"string"}],"stateMutability":"nonpayable"},{"type":"function","name":"allowance","inputs":[{"name":"","type":"address","internalType":"address"},{"name":"","type":"address","internalType":"address"}],"outputs":[{"name":"","type":"uint256","internalType":"uint256"}],"stateMutability":"view"},{"type":"function","name":"approve","inputs":[{"name":"spender","type":"address","internalType":"address"},{"name":"amount","type":"uint256","internalType":"uint256"}],"outputs":[{"name":"","type":"bool","internalType":"bool"}],"stateMutability":"nonpayable"},{"type":"function","name":"balanceOf","inputs":[{"name":"","type":"address","internalType":"address"}],"outputs":[{"name":"","type":"uint256","internalType":"uint256"}],"stateMutability":"view"},{"type":"function","name":"decimals","inputs":[],"outputs":[{"name":"","type":"uint8","internalType":"uint8"}],"stateMutability":"view"},{"type":"function","name":"mint","inputs":[{"name":"amount","type":"uint256","internalType":"uint256"}],"outputs":[],"stateMutability":"nonpayable"},{"type":"function","name":"name","inputs":[],"outputs":[{"name":"","type":"string","internalType":"string"}],"stateMutability":"view"},{"type":"function","name":"owner","inputs":[],"outputs":[{"name":"","type":"address","internalType":"address"}],"stateMutability":"view"},{"type":"function","name":"symbol","inputs":[],"outputs":[{"name":"","type":"string","internalType":"string"}],"stateMutability":"view"},{"type":"function","name":"totalSupply","inputs":[],"outputs":[{"name":"","type":"uint256","internalType":"uint256"}],"stateMutability":"view"},{"type":"function","name":"transfer","inputs":[{"name":"to","type":"address","internalType":"address"},{"name":"amount","type":"uint256","internalType":"uint256"}],"outputs":[{"name":"","type":"bool","internalType":"bool"}],"stateMutability":"nonpayable"},{"type":"function","name":"transferFrom","inputs":[{"name":"from","type":"address","internalType":"address"},{"name":"to","type":"address","internalType":"address"},{"name":"value","type":"uint256","internalType":"uint256"}],"outputs":[{"name":"","type":"bool","internalType":"bool"}],"stateMutability":"nonpayable"},{"type":"event","name":"Approval","inputs":[{"name":"owner","type":"address","indexed":true,"internalType":"address"},{"name":"spender","type":"address","indexed":true,"internalType":"address"},{"name":"value","type":"uint256","indexed":false,"internalType":"uint256"}],"anonymous":false},{"type":"event","name":"Transfer","inputs":[{"name":"from","type":"address","indexed":true,"internalType":"address"},{"name":"to","type":"address","indexed":true,"internalType":"address"},{"name":"value","type":"uint256","indexed":false,"internalType":"uint256"}],"anonymous":false}],"bytecode":{"object":"0x6080604052601260065f6101000a81548160ff021916908360ff16021790555034801561002a575f5ffd5b5060405161175f38038061175f833981810160405281019061004c9190610200565b816004908161005b9190610486565b50806005908161006b9190610486565b503360025f6101000a81548173ffffffffffffffffffffffffffffffffffffffff021916908373ffffffffffffffffffffffffffffffffffffffff1602179055505050610555565b5f604051905090565b5f5ffd5b5f5ffd5b5f5ffd5b5f5ffd5b5f601f19601f8301169050919050565b7f4e487b71000000000000000000000000000000000000000000000000000000005f52604160045260245ffd5b610112826100cc565b810181811067ffffffffffffffff82111715610131576101306100dc565b5b80604052505050565b5f6101436100b3565b905061014f8282610109565b919050565b5f67ffffffffffffffff82111561016e5761016d6100dc565b5b610177826100cc565b9050602081019050919050565b8281835e5f83830152505050565b5f6101a461019f84610154565b61013a565b9050828152602081018484840111156101c0576101bf6100c8565b5b6101cb848285610184565b509392505050565b5f82601f8301126101e7576101e66100c4565b5b81516101f7848260208601610192565b91505092915050565b5f5f60408385031215610216576102156100bc565b5b5f83015167ffffffffffffffff811115610233576102326100c0565b5b61023f858286016101d3565b925050602083015167ffffffffffffffff8111156102605761025f6100c0565b5b61026c858286016101d3565b9150509250929050565b5f81519050919050565b7f4e487b71000000000000000000000000000000000000000000000000000000005f52602260045260245ffd5b5f60028204905060018216806102c457607f821691505b6020821081036102d7576102d6610280565b5b50919050565b5f819050815f5260205f209050919050565b5f6020601f8301049050919050565b5f82821b905092915050565b5f600883026103397fffffffffffffffffffffffffffffffffffffffffffffffffffffffffffffffff826102fe565b61034386836102fe565b95508019841693508086168417925050509392505050565b5f819050919050565b5f819050919050565b5f61038761038261037d8461035b565b610364565b61035b565b9050919050565b5f819050919050565b6103a08361036d565b6103b46103ac8261038e565b84845461030a565b825550505050565b5f5f905090565b6103cb6103bc565b6103d6818484610397565b505050565b5b818110156103f9576103ee5f826103c3565b6001810190506103dc565b5050565b601f82111561043e5761040f816102dd565b610418846102ef565b81016020851015610427578190505b61043b610433856102ef565b8301826103db565b50505b505050565b5f82821c905092915050565b5f61045e5f1984600802610443565b1980831691505092915050565b5f610476838361044f565b9150826002028217905092915050565b61048f82610276565b67ffffffffffffffff8111156104a8576104a76100dc565b5b6104b282546102ad565b6104bd8282856103fd565b5f60209050601f8311600181146104ee575f84156104dc578287015190505b6104e6858261046b565b86555061054d565b601f1984166104fc866102dd565b5f5b82811015610523578489015182556001820191506020850194506020810190506104fe565b86831015610540578489015161053c601f89168261044f565b8355505b6001600288020188555050505b505050505050565b6111fd806105625f395ff3fe608060405234801561000f575f5ffd5b50600436106100a7575f3560e01c806370a082311161006f57806370a08231146101655780638da5cb5b1461019557806395d89b41146101b3578063a0712d68146101d1578063a9059cbb146101ed578063dd62ed3e1461021d576100a7565b806306fdde03146100ab578063095ea7b3146100c957806318160ddd146100f957806323b872dd14610117578063313ce56714610147575b5f5ffd5b6100b361024d565b6040516100c09190610bdd565b60405180910390f35b6100e360048036038101906100de9190610c8e565b6102d9565b6040516100f09190610ce6565b60405180910390f35b610101610573565b60405161010e9190610d0e565b60405180910390f35b610131600480360381019061012c9190610d27565b610579565b60405161013e9190610ce6565b60405180910390f35b61014f610768565b60405161015c9190610d92565b60405180910390f35b61017f600480360381019061017a9190610dab565b61077a565b60405161018c9190610d0e565b60405180910390f35b61019d61078e565b6040516101aa9190610de5565b60405180910390f35b6101bb6107b3565b6040516101c89190610bdd565b60405180910390f35b6101eb60048036038101906101e69190610dfe565b61083f565b005b61020760048036038101906102029190610c8e565b6109ae565b6040516102149190610ce6565b60405180910390f35b61023760048036038101906102329190610e29565b610b46565b6040516102449190610d0e565b60405180910390f35b6004805461025a90610e94565b80601f016020809104026020016040519081016040528092919081815260200182805461028690610e94565b80156102d15780601f106102a8576101008083540402835291602001916102d1565b820191905f5260205f20905b8154815290600101906020018083116102b457829003601f168201915b505050505081565b5f5f73ffffffffffffffffffffffffffffffffffffffff163373ffffffffffffffffffffffffffffffffffffffff1603610348576040517f08c379a000000000000000000000000000000000000000000000000000000000815260040161033f90610f0e565b60405180910390fd5b5f73ffffffffffffffffffffffffffffffffffffffff168373ffffffffffffffffffffffffffffffffffffffff16036103b6576040517f08c379a00000000000000000000000000000000000000000000000000000000081526004016103ad90610f76565b60405180910390fd5b8273ffffffffffffffffffffffffffffffffffffffff1660025f9054906101000a900473ffffffffffffffffffffffffffffffffffffffff1673ffffffffffffffffffffffffffffffffffffffff1603610445576040517f08c379a000000000000000000000000000000000000000000000000000000000815260040161043c90610fde565b60405180910390fd5b8160015f60025f9054906101000a900473ffffffffffffffffffffffffffffffffffffffff1673ffffffffffffffffffffffffffffffffffffffff1673ffffffffffffffffffffffffffffffffffffffff1681526020019081526020015f205f8573ffffffffffffffffffffffffffffffffffffffff1673ffffffffffffffffffffffffffffffffffffffff1681526020019081526020015f20819055508273ffffffffffffffffffffffffffffffffffffffff1660025f9054906101000a900473ffffffffffffffffffffffffffffffffffffffff1673ffffffffffffffffffffffffffffffffffffffff167f8c5be1e5ebec7d5bd14f71427d1e84f3dd0314c0f7b2291e5b200ac8c7c3b925846040516105619190610d0e565b60405180910390a36001905092915050565b60035481565b5f5f3390508260015f8773ffffffffffffffffffffffffffffffffffffffff1673ffffffffffffffffffffffffffffffffffffffff1681526020019081526020015f205f8373ffffffffffffffffffffffffffffffffffffffff1673ffffffffffffffffffffffffffffffffffffffff1681526020019081526020015f20541015610639576040517f08c379a000000000000000000000000000000000000000000000000000000000815260040161063090611046565b60405180910390fd5b825f5f8773ffffffffffffffffffffffffffffffffffffffff1673ffffffffffffffffffffffffffffffffffffffff1681526020019081526020015f205410156106b8576040517f08c379a00000000000000000000000000000000000000000000000000000000081526004016106af906110ae565b60405180910390fd5b825f5f8773ffffffffffffffffffffffffffffffffffffffff1673ffffffffffffffffffffffffffffffffffffffff1681526020019081526020015f205f82825461070391906110f9565b92505081905550825f5f8673ffffffffffffffffffffffffffffffffffffffff1673ffffffffffffffffffffffffffffffffffffffff1681526020019081526020015f205f828254610755919061112c565b9250508190555060019150509392505050565b60065f9054906101000a900460ff1681565b5f602052805f5260405f205f915090505481565b60025f9054906101000a900473ffffffffffffffffffffffffffffffffffffffff1681565b600580546107c090610e94565b80601f01602080910402602001604051908101604052809291908181526020018280546107ec90610e94565b80156108375780601f1061080e57610100808354040283529160200191610837565b820191905f5260205f20905b81548152906001019060200180831161081a57829003601f168201915b505050505081565b60025f9054906101000a900473ffffffffffffffffffffffffffffffffffffffff1673ffffffffffffffffffffffffffffffffffffffff163373ffffffffffffffffffffffffffffffffffffffff16146108ce576040517f08c379a00000000000000000000000000000000000000000000000000000000081526004016108c5906111a9565b60405180910390fd5b8060035f8282546108df919061112c565b92505081905550805f5f6108f1610b66565b73ffffffffffffffffffffffffffffffffffffffff1673ffffffffffffffffffffffffffffffffffffffff1681526020019081526020015f205f828254610938919061112c565b92505081905550610947610b66565b73ffffffffffffffffffffffffffffffffffffffff165f73ffffffffffffffffffffffffffffffffffffffff167fddf252ad1be2c89b69c2b068fc378daa952ba7f163c4a11628f55a4df523b3ef836040516109a39190610d0e565b60405180910390a350565b5f5f339050825f5f8373ffffffffffffffffffffffffffffffffffffffff1673ffffffffffffffffffffffffffffffffffffffff1681526020019081526020015f20541015610a32576040517f08c379a0000000000000000000000000000000000000000000000000000000008152600401610a29906110ae565b60405180910390fd5b825f5f8373ffffffffffffffffffffffffffffffffffffffff1673ffffffffffffffffffffffffffffffffffffffff1681526020019081526020015f205f828254610a7d91906110f9565b92505081905550825f5f8673ffffffffffffffffffffffffffffffffffffffff1673ffffffffffffffffffffffffffffffffffffffff1681526020019081526020015f205f828254610acf919061112c565b925050819055508373ffffffffffffffffffffffffffffffffffffffff168173ffffffffffffffffffffffffffffffffffffffff167fddf252ad1be2c89b69c2b068fc378daa952ba7f163c4a11628f55a4df523b3ef85604051610b339190610d0e565b60405180910390a3600191505092915050565b6001602052815f5260405f20602052805f5260405f205f91509150505481565b5f33905090565b5f81519050919050565b5f82825260208201905092915050565b8281835e5f83830152505050565b5f601f19601f8301169050919050565b5f610baf82610b6d565b610bb98185610b77565b9350610bc9818560208601610b87565b610bd281610b95565b840191505092915050565b5f6020820190508181035f830152610bf58184610ba5565b905092915050565b5f5ffd5b5f73ffffffffffffffffffffffffffffffffffffffff82169050919050565b5f610c2a82610c01565b9050919050565b610c3a81610c20565b8114610c44575f5ffd5b50565b5f81359050610c5581610c31565b92915050565b5f819050919050565b610c6d81610c5b565b8114610c77575f5ffd5b50565b5f81359050610c8881610c64565b92915050565b5f5f60408385031215610ca457610ca3610bfd565b5b5f610cb185828601610c47565b9250506020610cc285828601610c7a565b9150509250929050565b5f8115159050919050565b610ce081610ccc565b82525050565b5f602082019050610cf95f830184610cd7565b92915050565b610d0881610c5b565b82525050565b5f602082019050610d215f830184610cff565b92915050565b5f5f5f60608486031215610d3e57610d3d610bfd565b5b5f610d4b86828701610c47565b9350506020610d5c86828701610c47565b9250506040610d6d86828701610c7a565b9150509250925092565b5f60ff82169050919050565b610d8c81610d77565b82525050565b5f602082019050610da55f830184610d83565b92915050565b5f60208284031215610dc057610dbf610bfd565b5b5f610dcd84828501610c47565b91505092915050565b610ddf81610c20565b82525050565b5f602082019050610df85f830184610dd6565b92915050565b5f60208284031215610e1357610e12610bfd565b5b5f610e2084828501610c7a565b91505092915050565b5f5f60408385031215610e3f57610e3e610bfd565b5b5f610e4c85828601610c47565b9250506020610e5d85828601610c47565b9150509250929050565b7f4e487b71000000000000000000000000000000000000000000000000000000005f52602260045260245ffd5b5f6002820490506001821680610eab57607f821691505b602082108103610ebe57610ebd610e67565b5b50919050565b7f696e76616c6964206f776e6572206164647265737300000000000000000000005f82015250565b5f610ef8601583610b77565b9150610f0382610ec4565b602082019050919050565b5f6020820190508181035f830152610f2581610eec565b9050919050565b7f696e76616c6964207370656e64657220616464726573730000000000000000005f82015250565b5f610f60601783610b77565b9150610f6b82610f2c565b602082019050919050565b5f6020820190508181035f830152610f8d81610f54565b9050919050565b7f43616e6e6f7420617070726f76652073656c66000000000000000000000000005f82015250565b5f610fc8601383610b77565b9150610fd382610f94565b602082019050919050565b5f6020820190508181035f830152610ff581610fbc565b9050919050565b7f496e73756666696369656e7420616c6c6f77616e6365000000000000000000005f82015250565b5f611030601683610b77565b915061103b82610ffc565b602082019050919050565b5f6020820190508181035f83015261105d81611024565b9050919050565b7f496e73756666696369656e742062616c616e63650000000000000000000000005f82015250565b5f611098601483610b77565b91506110a382611064565b602082019050919050565b5f6020820190508181035f8301526110c58161108c565b9050919050565b7f4e487b71000000000000000000000000000000000000000000000000000000005f52601160045260245ffd5b5f61110382610c5b565b915061110e83610c5b565b9250828203905081811115611126576111256110cc565b5b92915050565b5f61113682610c5b565b915061114183610c5b565b9250828201905080821115611159576111586110cc565b5b92915050565b7f4f6e6c79206f776e65722063616e206d696e7420746f6b656e730000000000005f82015250565b5f611193601a83610b77565b915061119e8261115f565b602082019050919050565b5f6020820190508181035f8301526111c081611187565b905091905056fea26469706673582212205d1e626787f15b22f5171cd063343fea2f6af7816452b1b80abeecd2f3803a0764736f6c634300081e0033","linkReferences":{}},"methodIdentifiers":{"allowance(address,address)":"dd62ed3e","approve(address,uint256)":"095ea7b3","balanceOf(address)":"70a08231","decimals()":"313ce567","mint(uint256)":"a0712d68","name()":"06fdde03","owner()":"8da5cb5b","symbol()":"95d89b41","totalSupply()":"18160ddd","transfer(address,uint256)":"a9059cbb","transferFrom(address,address,uint256)":"23b872dd"},"id":23}